{
  "_format": "hh-sol-artifact-1",
  "contractName": "DisciplineProtocol",
  "sourceName": "contracts/DisciplineProtocol.sol",
  "abi": [
    {
      "inputs": [
        {
          "internalType": "address",
          "name": "_usdc",
          "type": "address"
        },
        {
          "internalType": "address",
          "name": "_validator",
          "type": "address"
        },
        {
          "internalType": "address",
          "name": "_rewardPool",
          "type": "address"
        }
      ],
      "stateMutability": "nonpayable",
      "type": "constructor"
    },
    {
      "inputs": [
        {
          "internalType": "address",
          "name": "owner",
          "type": "address"
        }
      ],
      "name": "OwnableInvalidOwner",
      "type": "error"
    },
    {
      "inputs": [
        {
          "internalType": "address",
          "name": "account",
          "type": "address"
        }
      ],
      "name": "OwnableUnauthorizedAccount",
      "type": "error"
    },
    {
      "inputs": [],
      "name": "ReentrancyGuardReentrantCall",
      "type": "error"
    },
    {
      "anonymous": false,
      "inputs": [
        {
          "indexed": false,
          "internalType": "uint256",
          "name": "commitmentId",
          "type": "uint256"
        },
        {
          "indexed": false,
          "internalType": "address",
          "name": "user",
          "type": "address"
        },
        {
          "indexed": false,
          "internalType": "uint256",
          "name": "amount",
          "type": "uint256"
        },
        {
          "indexed": false,
          "internalType": "string",
          "name": "goal",
          "type": "string"
        },
        {
          "indexed": false,
          "internalType": "string",
          "name": "githubUsername",
          "type": "string"
        }
      ],
      "name": "Deposited",
      "type": "event"
    },
    {
      "anonymous": false,
      "inputs": [
        {
          "indexed": true,
          "internalType": "address",
          "name": "previousOwner",
          "type": "address"
        },
        {
          "indexed": true,
          "internalType": "address",
          "name": "newOwner",
          "type": "address"
        }
      ],
      "name": "OwnershipTransferred",
      "type": "event"
    },
    {
      "anonymous": false,
      "inputs": [
        {
          "indexed": false,
          "internalType": "address",
          "name": "oldPool",
          "type": "address"
        },
        {
          "indexed": false,
          "internalType": "address",
          "name": "newPool",
          "type": "address"
        }
      ],
      "name": "PenaltyAddressUpdated",
      "type": "event"
    },
    {
      "anonymous": false,
      "inputs": [
        {
          "indexed": false,
          "internalType": "uint256",
          "name": "commitmentId",
          "type": "uint256"
        },
        {
          "indexed": false,
          "internalType": "address",
          "name": "user",
          "type": "address"
        },
        {
          "indexed": false,
          "internalType": "uint256",
          "name": "newScore",
          "type": "uint256"
        }
      ],
      "name": "TaskCompleted",
      "type": "event"
    },
    {
      "anonymous": false,
      "inputs": [
        {
          "indexed": false,
          "internalType": "uint256",
          "name": "commitmentId",
          "type": "uint256"
        },
        {
          "indexed": false,
          "internalType": "address",
          "name": "user",
          "type": "address"
        },
        {
          "indexed": false,
          "internalType": "uint256",
          "name": "penaltyAmount",
          "type": "uint256"
        },
        {
          "indexed": false,
          "internalType": "uint256",
          "name": "newScore",
          "type": "uint256"
        }
      ],
      "name": "TaskFailed",
      "type": "event"
    },
    {
      "anonymous": false,
      "inputs": [
        {
          "indexed": false,
          "internalType": "address",
          "name": "oldValidator",
          "type": "address"
        },
        {
          "indexed": false,
          "internalType": "address",
          "name": "newValidator",
          "type": "address"
        }
      ],
      "name": "ValidatorUpdated",
      "type": "event"
    },
    {
      "inputs": [],
      "name": "FAILURE_PENALTY",
      "outputs": [
        {
          "internalType": "uint256",
          "name": "",
          "type": "uint256"
        }
      ],
      "stateMutability": "view",
      "type": "function"
    },
    {
      "inputs": [],
      "name": "MAX_SCORE",
      "outputs": [
        {
          "internalType": "uint256",
          "name": "",
          "type": "uint256"
        }
      ],
      "stateMutability": "view",
      "type": "function"
    },
    {
      "inputs": [],
      "name": "SUCCESS_POINTS",
      "outputs": [
        {
          "internalType": "uint256",
          "name": "",
          "type": "uint256"
        }
      ],
      "stateMutability": "view",
      "type": "function"
    },
    {
      "inputs": [],
      "name": "commitmentCount",
      "outputs": [
        {
          "internalType": "uint256",
          "name": "",
          "type": "uint256"
        }
      ],
      "stateMutability": "view",
      "type": "function"
    },
    {
      "inputs": [
        {
          "internalType": "uint256",
          "name": "",
          "type": "uint256"
        }
      ],
      "name": "commitments",
      "outputs": [
        {
          "internalType": "address",
          "name": "user",
          "type": "address"
        },
        {
          "internalType": "uint256",
          "name": "amount",
          "type": "uint256"
        },
        {
          "internalType": "string",
          "name": "goal",
          "type": "string"
        },
        {
          "internalType": "string",
          "name": "githubUsername",
          "type": "string"
        },
        {
          "internalType": "uint256",
          "name": "createdAt",
          "type": "uint256"
        },
        {
          "internalType": "uint256",
          "name": "deadline",
          "type": "uint256"
        },
        {
          "internalType": "bool",
          "name": "completed",
          "type": "bool"
        },
        {
          "internalType": "bool",
          "name": "failed",
          "type": "bool"
        },
        {
          "internalType": "bool",
          "name": "refunded",
          "type": "bool"
        }
      ],
      "stateMutability": "view",
      "type": "function"
    },
    {
      "inputs": [
        {
          "internalType": "uint256",
          "name": "_commitmentId",
          "type": "uint256"
        }
      ],
      "name": "completeTask",
      "outputs": [],
      "stateMutability": "nonpayable",
      "type": "function"
    },
    {
      "inputs": [
        {
          "internalType": "uint256",
          "name": "_amount",
          "type": "uint256"
        },
        {
          "internalType": "string",
          "name": "_goal",
          "type": "string"
        },
        {
          "internalType": "string",
          "name": "_githubUsername",
          "type": "string"
        }
      ],
      "name": "deposit",
      "outputs": [],
      "stateMutability": "nonpayable",
      "type": "function"
    },
    {
      "inputs": [
        {
          "internalType": "address",
          "name": "",
          "type": "address"
        }
      ],
      "name": "disciplineScores",
      "outputs": [
        {
          "internalType": "uint256",
          "name": "",
          "type": "uint256"
        }
      ],
      "stateMutability": "view",
      "type": "function"
    },
    {
      "inputs": [
        {
          "internalType": "uint256",
          "name": "_commitmentId",
          "type": "uint256"
        }
      ],
      "name": "failTask",
      "outputs": [],
      "stateMutability": "nonpayable",
      "type": "function"
    },
    {
      "inputs": [
        {
          "internalType": "uint256",
          "name": "_commitmentId",
          "type": "uint256"
        }
      ],
      "name": "getCommitment",
      "outputs": [
        {
          "internalType": "address",
          "name": "user",
          "type": "address"
        },
        {
          "internalType": "uint256",
          "name": "amount",
          "type": "uint256"
        },
        {
          "internalType": "string",
          "name": "goal",
          "type": "string"
        },
        {
          "internalType": "string",
          "name": "githubUsername",
          "type": "string"
        },
        {
          "internalType": "uint256",
          "name": "createdAt",
          "type": "uint256"
        },
        {
          "internalType": "uint256",
          "name": "deadline",
          "type": "uint256"
        },
        {
          "internalType": "bool",
          "name": "completed",
          "type": "bool"
        },
        {
          "internalType": "bool",
          "name": "failed",
          "type": "bool"
        },
        {
          "internalType": "bool",
          "name": "refunded",
          "type": "bool"
        }
      ],
      "stateMutability": "view",
      "type": "function"
    },
    {
      "inputs": [
        {
          "internalType": "address",
          "name": "_user",
          "type": "address"
        }
      ],
      "name": "getScore",
      "outputs": [
        {
          "internalType": "uint256",
          "name": "score",
          "type": "uint256"
        },
        {
          "internalType": "string",
          "name": "level",
          "type": "string"
        }
      ],
      "stateMutability": "view",
      "type": "function"
    },
    {
      "inputs": [],
      "name": "owner",
      "outputs": [
        {
          "internalType": "address",
          "name": "",
          "type": "address"
        }
      ],
      "stateMutability": "view",
      "type": "function"
    },
    {
      "inputs": [],
      "name": "renounceOwnership",
      "outputs": [],
      "stateMutability": "nonpayable",
      "type": "function"
    },
    {
      "inputs": [],
      "name": "rewardPool",
      "outputs": [
        {
          "internalType": "address",
          "name": "",
          "type": "address"
        }
      ],
      "stateMutability": "view",
      "type": "function"
    },
    {
      "inputs": [
        {
          "internalType": "address",
          "name": "_newRewardPool",
          "type": "address"
        }
      ],
      "name": "setRewardPool",
      "outputs": [],
      "stateMutability": "nonpayable",
      "type": "function"
    },
    {
      "inputs": [
        {
          "internalType": "address",
          "name": "_newValidator",
          "type": "address"
        }
      ],
      "name": "setValidator",
      "outputs": [],
      "stateMutability": "nonpayable",
      "type": "function"
    },
    {
      "inputs": [
        {
          "internalType": "address",
          "name": "newOwner",
          "type": "address"
        }
      ],
      "name": "transferOwnership",
      "outputs": [],
      "stateMutability": "nonpayable",
      "type": "function"
    },
    {
      "inputs": [],
      "name": "usdc",
      "outputs": [
        {
          "internalType": "contract IERC20",
          "name": "",
          "type": "address"
        }
      ],
      "stateMutability": "view",
      "type": "function"
    },
    {
      "inputs": [],
      "name": "validator",
      "outputs": [
        {
          "internalType": "address",
          "name": "",
          "type": "address"
        }
      ],
      "stateMutability": "view",
      "type": "function"
    }
  ],
  "bytecode": "0x60a06040523480156200001157600080fd5b5060405162002fe438038062002fe4833981810160405281019062000037919062000460565b33600073ffffffffffffffffffffffffffffffffffffffff168173ffffffffffffffffffffffffffffffffffffffff1603620000ad5760006040517f1e4fbdf7000000000000000000000000000000000000000000000000000000008152600401620000a49190620004cd565b60405180910390fd5b620000be81620002fd60201b60201c565b506001620000e1620000d5620003c160201b60201c565b620003ec60201b60201c565b60000181905550600073ffffffffffffffffffffffffffffffffffffffff168373ffffffffffffffffffffffffffffffffffffffff16036200015a576040517f08c379a000000000000000000000000000000000000000000000000000000000815260040162000151906200054b565b60405180910390fd5b600073ffffffffffffffffffffffffffffffffffffffff168273ffffffffffffffffffffffffffffffffffffffff1603620001cc576040517f08c379a0000000000000000000000000000000000000000000000000000000008152600401620001c390620005bd565b60405180910390fd5b600073ffffffffffffffffffffffffffffffffffffffff168173ffffffffffffffffffffffffffffffffffffffff16036200023e576040517f08c379a000000000000000000000000000000000000000000000000000000000815260040162000235906200062f565b60405180910390fd5b8273ffffffffffffffffffffffffffffffffffffffff1660808173ffffffffffffffffffffffffffffffffffffffff168152505081600160006101000a81548173ffffffffffffffffffffffffffffffffffffffff021916908373ffffffffffffffffffffffffffffffffffffffff16021790555080600260006101000a81548173ffffffffffffffffffffffffffffffffffffffff021916908373ffffffffffffffffffffffffffffffffffffffff16021790555050505062000651565b60008060009054906101000a900473ffffffffffffffffffffffffffffffffffffffff169050816000806101000a81548173ffffffffffffffffffffffffffffffffffffffff021916908373ffffffffffffffffffffffffffffffffffffffff1602179055508173ffffffffffffffffffffffffffffffffffffffff168173ffffffffffffffffffffffffffffffffffffffff167f8be0079c531659141344cd1fd0a4f28419497f9722a3daafe3b4186f6b6457e060405160405180910390a35050565b60007f9b779b17422d0df92223018b32b4d1fa46e071723d6817e2486d003becc55f0060001b905090565b6000819050919050565b600080fd5b600073ffffffffffffffffffffffffffffffffffffffff82169050919050565b60006200042882620003fb565b9050919050565b6200043a816200041b565b81146200044657600080fd5b50565b6000815190506200045a816200042f565b92915050565b6000806000606084860312156200047c576200047b620003f6565b5b60006200048c8682870162000449565b93505060206200049f8682870162000449565b9250506040620004b28682870162000449565b9150509250925092565b620004c7816200041b565b82525050565b6000602082019050620004e46000830184620004bc565b92915050565b600082825260208201905092915050565b7f496e76616c696420555344432061646472657373000000000000000000000000600082015250565b600062000533601483620004ea565b91506200054082620004fb565b602082019050919050565b60006020820190508181036000830152620005668162000524565b9050919050565b7f496e76616c69642076616c696461746f72206164647265737300000000000000600082015250565b6000620005a5601983620004ea565b9150620005b2826200056d565b602082019050919050565b60006020820190508181036000830152620005d88162000596565b9050919050565b7f496e76616c69642072657761726420706f6f6c20616464726573730000000000600082015250565b600062000617601b83620004ea565b91506200062482620005df565b602082019050919050565b600060208201905081810360008301526200064a8162000608565b9050919050565b608051612962620006826000396000818161055f015281816108f901528181610ef8015261156801526129626000f3fe608060405234801561001057600080fd5b50600436106101215760003560e01c8063715018a6116100ad578063cff5820b11610071578063cff5820b146102f4578063d47875d014610312578063e1e2955814610343578063f2fde38b1461035f578063fee208be1461037b57610121565b8063715018a61461027657806378238c37146102805780638da5cb5b1461029c57806397695d93146102ba578063c44956d1146102d657610121565b80633e413bee116100f45780633e413bee1461019a578063427abf0c146101b857806349ce8997146101e857806366666aa91461022057806369bcdb7d1461023e57610121565b806307c15e86146101265780631327d3d81461014257806327ff62231461015e5780633a5381b51461017c575b600080fd5b610140600480360381019061013b9190611ab1565b610399565b005b61015c60048036038101906101579190611b3c565b6107b5565b005b6101666108cb565b6040516101739190611b78565b60405180910390f35b6101846108d1565b6040516101919190611ba2565b60405180910390f35b6101a26108f7565b6040516101af9190611c1c565b60405180910390f35b6101d260048036038101906101cd9190611b3c565b61091b565b6040516101df9190611b78565b60405180910390f35b61020260048036038101906101fd9190611ab1565b610933565b60405161021799989796959493929190611ce2565b60405180910390f35b610228610ad8565b6040516102359190611ba2565b60405180910390f35b61025860048036038101906102539190611ab1565b610afe565b60405161026d99989796959493929190611ce2565b60405180910390f35b61027e610ccc565b005b61029a60048036038101906102959190611b3c565b610ce0565b005b6102a4610df6565b6040516102b19190611ba2565b60405180910390f35b6102d460048036038101906102cf9190611de2565b610e1f565b005b6102de611240565b6040516102eb9190611b78565b60405180910390f35b6102fc611246565b6040516103099190611b78565b60405180910390f35b61032c60048036038101906103279190611b3c565b61124b565b60405161033a929190611e77565b60405180910390f35b61035d60048036038101906103589190611ab1565b6113a2565b005b61037960048036038101906103749190611b3c565b6117c1565b005b610383611847565b6040516103909190611b78565b60405180910390f35b600160009054906101000a900473ffffffffffffffffffffffffffffffffffffffff1673ffffffffffffffffffffffffffffffffffffffff163373ffffffffffffffffffffffffffffffffffffffff1614610429576040517f08c379a000000000000000000000000000000000000000000000000000000000815260040161042090611ef3565b60405180910390fd5b6000600460008381526020019081526020016000209050600073ffffffffffffffffffffffffffffffffffffffff168160000160009054906101000a900473ffffffffffffffffffffffffffffffffffffffff1673ffffffffffffffffffffffffffffffffffffffff16036104d3576040517f08c379a00000000000000000000000000000000000000000000000000000000081526004016104ca90611f5f565b60405180910390fd5b8060060160009054906101000a900460ff1615801561050157508060060160019054906101000a900460ff16155b610540576040517f08c379a000000000000000000000000000000000000000000000000000000000815260040161053790611fcb565b60405180910390fd5b60018160060160016101000a81548160ff0219169083151502179055507f000000000000000000000000000000000000000000000000000000000000000073ffffffffffffffffffffffffffffffffffffffff1663a9059cbb600260009054906101000a900473ffffffffffffffffffffffffffffffffffffffff1683600101546040518363ffffffff1660e01b81526004016105de929190611feb565b6020604051808303816000875af11580156105fd573d6000803e3d6000fd5b505050506040513d601f19601f820116820180604052508101906106219190612040565b610660576040517f08c379a0000000000000000000000000000000000000000000000000000000008152600401610657906120b9565b60405180910390fd5b6000600360008360000160009054906101000a900473ffffffffffffffffffffffffffffffffffffffff1673ffffffffffffffffffffffffffffffffffffffff1673ffffffffffffffffffffffffffffffffffffffff1681526020019081526020016000205490506000601482106106e2576014826106df9190612108565b90505b80600360008560000160009054906101000a900473ffffffffffffffffffffffffffffffffffffffff1673ffffffffffffffffffffffffffffffffffffffff1673ffffffffffffffffffffffffffffffffffffffff168152602001908152602001600020819055507f7811468e49fcd75dfb7390b9e68d1147bb6aef81c7b6b00f9008e3137c1170f2848460000160009054906101000a900473ffffffffffffffffffffffffffffffffffffffff168560010154846040516107a7949392919061213c565b60405180910390a150505050565b6107bd61184c565b600073ffffffffffffffffffffffffffffffffffffffff168173ffffffffffffffffffffffffffffffffffffffff160361082c576040517f08c379a0000000000000000000000000000000000000000000000000000000008152600401610823906121cd565b60405180910390fd5b7fcfac5dc75b8d9a7e074162f59d9adcd33da59f0fe8dfb21580db298fc0fdad0d600160009054906101000a900473ffffffffffffffffffffffffffffffffffffffff168260405161087f9291906121ed565b60405180910390a180600160006101000a81548173ffffffffffffffffffffffffffffffffffffffff021916908373ffffffffffffffffffffffffffffffffffffffff16021790555050565b6103e881565b600160009054906101000a900473ffffffffffffffffffffffffffffffffffffffff1681565b7f000000000000000000000000000000000000000000000000000000000000000081565b60036020528060005260406000206000915090505481565b60046020528060005260406000206000915090508060000160009054906101000a900473ffffffffffffffffffffffffffffffffffffffff169080600101549080600201805461098290612245565b80601f01602080910402602001604051908101604052809291908181526020018280546109ae90612245565b80156109fb5780601f106109d0576101008083540402835291602001916109fb565b820191906000526020600020905b8154815290600101906020018083116109de57829003601f168201915b505050505090806003018054610a1090612245565b80601f0160208091040260200160405190810160405280929190818152602001828054610a3c90612245565b8015610a895780601f10610a5e57610100808354040283529160200191610a89565b820191906000526020600020905b815481529060010190602001808311610a6c57829003601f168201915b5050505050908060040154908060050154908060060160009054906101000a900460ff16908060060160019054906101000a900460ff16908060060160029054906101000a900460ff16905089565b600260009054906101000a900473ffffffffffffffffffffffffffffffffffffffff1681565b600080606080600080600080600080600460008c815260200190815260200160002090508060000160009054906101000a900473ffffffffffffffffffffffffffffffffffffffff1681600101548260020183600301846004015485600501548660060160009054906101000a900460ff168760060160019054906101000a900460ff168860060160029054906101000a900460ff16868054610ba090612245565b80601f0160208091040260200160405190810160405280929190818152602001828054610bcc90612245565b8015610c195780601f10610bee57610100808354040283529160200191610c19565b820191906000526020600020905b815481529060010190602001808311610bfc57829003601f168201915b50505050509650858054610c2c90612245565b80601f0160208091040260200160405190810160405280929190818152602001828054610c5890612245565b8015610ca55780601f10610c7a57610100808354040283529160200191610ca5565b820191906000526020600020905b815481529060010190602001808311610c8857829003601f168201915b50505050509550995099509950995099509950995099509950509193959799909294969850565b610cd461184c565b610cde60006118d3565b565b610ce861184c565b600073ffffffffffffffffffffffffffffffffffffffff168173ffffffffffffffffffffffffffffffffffffffff1603610d57576040517f08c379a0000000000000000000000000000000000000000000000000000000008152600401610d4e906122c2565b60405180910390fd5b7f982038777018f43d216c39e3c6df95b0a3f35ec6d49040a1d7f1b21b23589de0600260009054906101000a900473ffffffffffffffffffffffffffffffffffffffff1682604051610daa9291906121ed565b60405180910390a180600260006101000a81548173ffffffffffffffffffffffffffffffffffffffff021916908373ffffffffffffffffffffffffffffffffffffffff16021790555050565b60008060009054906101000a900473ffffffffffffffffffffffffffffffffffffffff16905090565b610e27611997565b60008511610e6a576040517f08c379a0000000000000000000000000000000000000000000000000000000008152600401610e619061232e565b60405180910390fd5b60008484905011610eb0576040517f08c379a0000000000000000000000000000000000000000000000000000000008152600401610ea79061239a565b60405180910390fd5b60008282905011610ef6576040517f08c379a0000000000000000000000000000000000000000000000000000000008152600401610eed90612406565b60405180910390fd5b7f000000000000000000000000000000000000000000000000000000000000000073ffffffffffffffffffffffffffffffffffffffff166323b872dd3330886040518463ffffffff1660e01b8152600401610f5393929190612426565b6020604051808303816000875af1158015610f72573d6000803e3d6000fd5b505050506040513d601f19601f82011682018060405250810190610f969190612040565b610fd5576040517f08c379a0000000000000000000000000000000000000000000000000000000008152600401610fcc906124a9565b60405180910390fd5b60056000815480929190610fe8906124c9565b91905055506040518061012001604052803373ffffffffffffffffffffffffffffffffffffffff16815260200186815260200185858080601f016020809104026020016040519081016040528093929190818152602001838380828437600081840152601f19601f82011690508083019250505050505050815260200183838080601f016020809104026020016040519081016040528093929190818152602001838380828437600081840152601f19601f82011690508083019250505050505050815260200142815260200162015180426110c49190612511565b81526020016000151581526020016000151581526020016000151581525060046000600554815260200190815260200160002060008201518160000160006101000a81548173ffffffffffffffffffffffffffffffffffffffff021916908373ffffffffffffffffffffffffffffffffffffffff16021790555060208201518160010155604082015181600201908161115d9190612716565b5060608201518160030190816111739190612716565b506080820151816004015560a0820151816005015560c08201518160060160006101000a81548160ff02191690831515021790555060e08201518160060160016101000a81548160ff0219169083151502179055506101008201518160060160026101000a81548160ff0219169083151502179055509050507f430117513784b6aef370413dae4692f1b22620c200a808dc308d602c312f5f086005543387878787876040516112299796959493929190612824565b60405180910390a16112396119ba565b5050505050565b60055481565b601481565b60006060600360008473ffffffffffffffffffffffffffffffffffffffff1673ffffffffffffffffffffffffffffffffffffffff1681526020019081526020016000205491506103e882106112d7576040518060400160405280600681526020017f4c6567656e640000000000000000000000000000000000000000000000000000815250905061139d565b6101f4821061131d576040518060400160405280600581526020017f456c697465000000000000000000000000000000000000000000000000000000815250905061139c565b60648210611362576040518060400160405280600b81526020017f4469736369706c696e6564000000000000000000000000000000000000000000815250905061139b565b6040518060400160405280600681526020017f4e6f76696365000000000000000000000000000000000000000000000000000081525090505b5b5b915091565b600160009054906101000a900473ffffffffffffffffffffffffffffffffffffffff1673ffffffffffffffffffffffffffffffffffffffff163373ffffffffffffffffffffffffffffffffffffffff1614611432576040517f08c379a000000000000000000000000000000000000000000000000000000000815260040161142990611ef3565b60405180910390fd5b6000600460008381526020019081526020016000209050600073ffffffffffffffffffffffffffffffffffffffff168160000160009054906101000a900473ffffffffffffffffffffffffffffffffffffffff1673ffffffffffffffffffffffffffffffffffffffff16036114dc576040517f08c379a00000000000000000000000000000000000000000000000000000000081526004016114d390611f5f565b60405180910390fd5b8060060160009054906101000a900460ff1615801561150a57508060060160019054906101000a900460ff16155b611549576040517f08c379a000000000000000000000000000000000000000000000000000000000815260040161154090611fcb565b60405180910390fd5b60018160060160006101000a81548160ff0219169083151502179055507f000000000000000000000000000000000000000000000000000000000000000073ffffffffffffffffffffffffffffffffffffffff1663a9059cbb8260000160009054906101000a900473ffffffffffffffffffffffffffffffffffffffff1683600101546040518363ffffffff1660e01b81526004016115e9929190611feb565b6020604051808303816000875af1158015611608573d6000803e3d6000fd5b505050506040513d601f19601f8201168201806040525081019061162c9190612040565b61166b576040517f08c379a0000000000000000000000000000000000000000000000000000000008152600401611662906128d5565b60405180910390fd5b6000600360008360000160009054906101000a900473ffffffffffffffffffffffffffffffffffffffff1673ffffffffffffffffffffffffffffffffffffffff1673ffffffffffffffffffffffffffffffffffffffff1681526020019081526020016000205490506000600a826116e29190612511565b90506103e88111156116f4576103e890505b80600360008560000160009054906101000a900473ffffffffffffffffffffffffffffffffffffffff1673ffffffffffffffffffffffffffffffffffffffff1673ffffffffffffffffffffffffffffffffffffffff168152602001908152602001600020819055507f843af93d40addceac6932508439844b897d4df9e971db326d557e3cdaa9f3ebf848460000160009054906101000a900473ffffffffffffffffffffffffffffffffffffffff16836040516117b3939291906128f5565b60405180910390a150505050565b6117c961184c565b600073ffffffffffffffffffffffffffffffffffffffff168173ffffffffffffffffffffffffffffffffffffffff160361183b5760006040517f1e4fbdf70000000000000000000000000000000000000000000000000000000081526004016118329190611ba2565b60405180910390fd5b611844816118d3565b50565b600a81565b6118546119d5565b73ffffffffffffffffffffffffffffffffffffffff16611872610df6565b73ffffffffffffffffffffffffffffffffffffffff16146118d1576118956119d5565b6040517f118cdaa70000000000000000000000000000000000000000000000000000000081526004016118c89190611ba2565b60405180910390fd5b565b60008060009054906101000a900473ffffffffffffffffffffffffffffffffffffffff169050816000806101000a81548173ffffffffffffffffffffffffffffffffffffffff021916908373ffffffffffffffffffffffffffffffffffffffff1602179055508173ffffffffffffffffffffffffffffffffffffffff168173ffffffffffffffffffffffffffffffffffffffff167f8be0079c531659141344cd1fd0a4f28419497f9722a3daafe3b4186f6b6457e060405160405180910390a35050565b61199f6119dd565b60026119b16119ac611a1e565b611a49565b60000181905550565b60016119cc6119c7611a1e565b611a49565b60000181905550565b600033905090565b6119e5611a53565b15611a1c576040517f3ee5aeb500000000000000000000000000000000000000000000000000000000815260040160405180910390fd5b565b60007f9b779b17422d0df92223018b32b4d1fa46e071723d6817e2486d003becc55f0060001b905090565b6000819050919050565b60006002611a67611a62611a1e565b611a49565b6000015414905090565b600080fd5b600080fd5b6000819050919050565b611a8e81611a7b565b8114611a9957600080fd5b50565b600081359050611aab81611a85565b92915050565b600060208284031215611ac757611ac6611a71565b5b6000611ad584828501611a9c565b91505092915050565b600073ffffffffffffffffffffffffffffffffffffffff82169050919050565b6000611b0982611ade565b9050919050565b611b1981611afe565b8114611b2457600080fd5b50565b600081359050611b3681611b10565b92915050565b600060208284031215611b5257611b51611a71565b5b6000611b6084828501611b27565b91505092915050565b611b7281611a7b565b82525050565b6000602082019050611b8d6000830184611b69565b92915050565b611b9c81611afe565b82525050565b6000602082019050611bb76000830184611b93565b92915050565b6000819050919050565b6000611be2611bdd611bd884611ade565b611bbd565b611ade565b9050919050565b6000611bf482611bc7565b9050919050565b6000611c0682611be9565b9050919050565b611c1681611bfb565b82525050565b6000602082019050611c316000830184611c0d565b92915050565b600081519050919050565b600082825260208201905092915050565b60005b83811015611c71578082015181840152602081019050611c56565b60008484015250505050565b6000601f19601f8301169050919050565b6000611c9982611c37565b611ca38185611c42565b9350611cb3818560208601611c53565b611cbc81611c7d565b840191505092915050565b60008115159050919050565b611cdc81611cc7565b82525050565b600061012082019050611cf8600083018c611b93565b611d05602083018b611b69565b8181036040830152611d17818a611c8e565b90508181036060830152611d2b8189611c8e565b9050611d3a6080830188611b69565b611d4760a0830187611b69565b611d5460c0830186611cd3565b611d6160e0830185611cd3565b611d6f610100830184611cd3565b9a9950505050505050505050565b600080fd5b600080fd5b600080fd5b60008083601f840112611da257611da1611d7d565b5b8235905067ffffffffffffffff811115611dbf57611dbe611d82565b5b602083019150836001820283011115611ddb57611dda611d87565b5b9250929050565b600080600080600060608688031215611dfe57611dfd611a71565b5b6000611e0c88828901611a9c565b955050602086013567ffffffffffffffff811115611e2d57611e2c611a76565b5b611e3988828901611d8c565b9450945050604086013567ffffffffffffffff811115611e5c57611e5b611a76565b5b611e6888828901611d8c565b92509250509295509295909350565b6000604082019050611e8c6000830185611b69565b8181036020830152611e9e8184611c8e565b90509392505050565b7f4f6e6c792076616c696461746f722063616e2063616c6c207468697300000000600082015250565b6000611edd601c83611c42565b9150611ee882611ea7565b602082019050919050565b60006020820190508181036000830152611f0c81611ed0565b9050919050565b7f436f6d6d69746d656e7420646f6573206e6f7420657869737400000000000000600082015250565b6000611f49601983611c42565b9150611f5482611f13565b602082019050919050565b60006020820190508181036000830152611f7881611f3c565b9050919050565b7f416c7265616479207265736f6c76656400000000000000000000000000000000600082015250565b6000611fb5601083611c42565b9150611fc082611f7f565b602082019050919050565b60006020820190508181036000830152611fe481611fa8565b9050919050565b60006040820190506120006000830185611b93565b61200d6020830184611b69565b9392505050565b61201d81611cc7565b811461202857600080fd5b50565b60008151905061203a81612014565b92915050565b60006020828403121561205657612055611a71565b5b60006120648482850161202b565b91505092915050565b7f50656e616c7479207472616e73666572206661696c6564000000000000000000600082015250565b60006120a3601783611c42565b91506120ae8261206d565b602082019050919050565b600060208201905081810360008301526120d281612096565b9050919050565b7f4e487b7100000000000000000000000000000000000000000000000000000000600052601160045260246000fd5b600061211382611a7b565b915061211e83611a7b565b9250828203905081811115612136576121356120d9565b5b92915050565b60006080820190506121516000830187611b69565b61215e6020830186611b93565b61216b6040830185611b69565b6121786060830184611b69565b95945050505050565b7f496e76616c69642076616c696461746f72206164647265737300000000000000600082015250565b60006121b7601983611c42565b91506121c282612181565b602082019050919050565b600060208201905081810360008301526121e6816121aa565b9050919050565b60006040820190506122026000830185611b93565b61220f6020830184611b93565b9392505050565b7f4e487b7100000000000000000000000000000000000000000000000000000000600052602260045260246000fd5b6000600282049050600182168061225d57607f821691505b6020821081036122705761226f612216565b5b50919050565b7f496e76616c69642072657761726420706f6f6c20616464726573730000000000600082015250565b60006122ac601b83611c42565b91506122b782612276565b602082019050919050565b600060208201905081810360008301526122db8161229f565b9050919050565b7f416d6f756e74206d7573742062652067726561746572207468616e2030000000600082015250565b6000612318601d83611c42565b9150612323826122e2565b602082019050919050565b600060208201905081810360008301526123478161230b565b9050919050565b7f476f616c2063616e6e6f7420626520656d707479000000000000000000000000600082015250565b6000612384601483611c42565b915061238f8261234e565b602082019050919050565b600060208201905081810360008301526123b381612377565b9050919050565b7f47697448756220757365726e616d652063616e6e6f7420626520656d70747900600082015250565b60006123f0601f83611c42565b91506123fb826123ba565b602082019050919050565b6000602082019050818103600083015261241f816123e3565b9050919050565b600060608201905061243b6000830186611b93565b6124486020830185611b93565b6124556040830184611b69565b949350505050565b7f55534443207472616e73666572206661696c6564000000000000000000000000600082015250565b6000612493601483611c42565b915061249e8261245d565b602082019050919050565b600060208201905081810360008301526124c281612486565b9050919050565b60006124d482611a7b565b91507fffffffffffffffffffffffffffffffffffffffffffffffffffffffffffffffff8203612506576125056120d9565b5b600182019050919050565b600061251c82611a7b565b915061252783611a7b565b925082820190508082111561253f5761253e6120d9565b5b92915050565b7f4e487b7100000000000000000000000000000000000000000000000000000000600052604160045260246000fd5b60008190508160005260206000209050919050565b60006020601f8301049050919050565b600082821b905092915050565b6000600883026125d67fffffffffffffffffffffffffffffffffffffffffffffffffffffffffffffffff82612599565b6125e08683612599565b95508019841693508086168417925050509392505050565b600061261361260e61260984611a7b565b611bbd565b611a7b565b9050919050565b6000819050919050565b61262d836125f8565b6126416126398261261a565b8484546125a6565b825550505050565b600090565b612656612649565b612661818484612624565b505050565b5b818110156126855761267a60008261264e565b600181019050612667565b5050565b601f8211156126ca5761269b81612574565b6126a484612589565b810160208510156126b3578190505b6126c76126bf85612589565b830182612666565b50505b505050565b600082821c905092915050565b60006126ed600019846008026126cf565b1980831691505092915050565b600061270683836126dc565b9150826002028217905092915050565b61271f82611c37565b67ffffffffffffffff81111561273857612737612545565b5b6127428254612245565b61274d828285612689565b600060209050601f831160018114612780576000841561276e578287015190505b61277885826126fa565b8655506127e0565b601f19841661278e86612574565b60005b828110156127b657848901518255600182019150602085019450602081019050612791565b868310156127d357848901516127cf601f8916826126dc565b8355505b6001600288020188555050505b505050505050565b82818337600083830152505050565b60006128038385611c42565b93506128108385846127e8565b61281983611c7d565b840190509392505050565b600060a082019050612839600083018a611b69565b6128466020830189611b93565b6128536040830188611b69565b81810360608301526128668186886127f7565b9050818103608083015261287b8184866127f7565b905098975050505050505050565b7f526566756e64206661696c656400000000000000000000000000000000000000600082015250565b60006128bf600d83611c42565b91506128ca82612889565b602082019050919050565b600060208201905081810360008301526128ee816128b2565b9050919050565b600060608201905061290a6000830186611b69565b6129176020830185611b93565b6129246040830184611b69565b94935050505056fea264697066735822122014dfd1dc2d39a94964d45bd566e5a14d79a94b5b4f01bcf7157f80fff09e1d1664736f6c63430008180033",
  "linkReferences": {},
  "deployedLinkReferences": {}
}