{
  "_format": "hh-sol-artifact-1",
  "contractName": "RewardPool",
  "sourceName": "contracts/RewardPool.sol",
  "abi": [
    {
      "inputs": [
        {
          "internalType": "address",
          "name": "_usdc",
          "type": "address"
        },
        {
          "internalType": "address",
          "name": "_protocol",
          "type": "address"
        }
      ],
      "stateMutability": "nonpayable",
      "type": "constructor"
    },
    {
      "inputs": [
        {
          "internalType": "address",
          "name": "owner",
          "type": "address"
        }
      ],
      "name": "OwnableInvalidOwner",
      "type": "error"
    },
    {
      "inputs": [
        {
          "internalType": "address",
          "name": "account",
          "type": "address"
        }
      ],
      "name": "OwnableUnauthorizedAccount",
      "type": "error"
    },
    {
      "anonymous": false,
      "inputs": [
        {
          "indexed": false,
          "internalType": "address",
          "name": "from",
          "type": "address"
        },
        {
          "indexed": false,
          "internalType": "uint256",
          "name": "amount",
          "type": "uint256"
        }
      ],
      "name": "Deposited",
      "type": "event"
    },
    {
      "anonymous": false,
      "inputs": [
        {
          "indexed": true,
          "internalType": "address",
          "name": "previousOwner",
          "type": "address"
        },
        {
          "indexed": true,
          "internalType": "address",
          "name": "newOwner",
          "type": "address"
        }
      ],
      "name": "OwnershipTransferred",
      "type": "event"
    },
    {
      "anonymous": false,
      "inputs": [
        {
          "indexed": false,
          "internalType": "address",
          "name": "user",
          "type": "address"
        },
        {
          "indexed": false,
          "internalType": "uint256",
          "name": "amount",
          "type": "uint256"
        },
        {
          "indexed": false,
          "internalType": "uint256",
          "name": "score",
          "type": "uint256"
        }
      ],
      "name": "RewardClaimed",
      "type": "event"
    },
    {
      "inputs": [],
      "name": "MIN_SCORE_TO_CLAIM",
      "outputs": [
        {
          "internalType": "uint256",
          "name": "",
          "type": "uint256"
        }
      ],
      "stateMutability": "view",
      "type": "function"
    },
    {
      "inputs": [],
      "name": "claim",
      "outputs": [],
      "stateMutability": "nonpayable",
      "type": "function"
    },
    {
      "inputs": [
        {
          "internalType": "uint256",
          "name": "_amount",
          "type": "uint256"
        }
      ],
      "name": "deposit",
      "outputs": [],
      "stateMutability": "nonpayable",
      "type": "function"
    },
    {
      "inputs": [
        {
          "internalType": "uint256",
          "name": "_amount",
          "type": "uint256"
        }
      ],
      "name": "emergencyWithdraw",
      "outputs": [],
      "stateMutability": "nonpayable",
      "type": "function"
    },
    {
      "inputs": [],
      "name": "owner",
      "outputs": [
        {
          "internalType": "address",
          "name": "",
          "type": "address"
        }
      ],
      "stateMutability": "view",
      "type": "function"
    },
    {
      "inputs": [],
      "name": "protocol",
      "outputs": [
        {
          "internalType": "contract IDisciplineProtocol",
          "name": "",
          "type": "address"
        }
      ],
      "stateMutability": "view",
      "type": "function"
    },
    {
      "inputs": [],
      "name": "renounceOwnership",
      "outputs": [],
      "stateMutability": "nonpayable",
      "type": "function"
    },
    {
      "inputs": [
        {
          "internalType": "address",
          "name": "newOwner",
          "type": "address"
        }
      ],
      "name": "transferOwnership",
      "outputs": [],
      "stateMutability": "nonpayable",
      "type": "function"
    },
    {
      "inputs": [],
      "name": "usdc",
      "outputs": [
        {
          "internalType": "contract IERC20",
          "name": "",
          "type": "address"
        }
      ],
      "stateMutability": "view",
      "type": "function"
    }
  ],
  "bytecode": "0x60a06040523480156200001157600080fd5b50604051620014283803806200142883398181016040528101906200003791906200034e565b33600073ffffffffffffffffffffffffffffffffffffffff168173ffffffffffffffffffffffffffffffffffffffff1603620000ad5760006040517f1e4fbdf7000000000000000000000000000000000000000000000000000000008152600401620000a49190620003a6565b60405180910390fd5b620000be816200022060201b60201c565b50600073ffffffffffffffffffffffffffffffffffffffff168273ffffffffffffffffffffffffffffffffffffffff160362000131576040517f08c379a0000000000000000000000000000000000000000000000000000000008152600401620001289062000424565b60405180910390fd5b600073ffffffffffffffffffffffffffffffffffffffff168173ffffffffffffffffffffffffffffffffffffffff1603620001a3576040517f08c379a00000000000000000000000000000000000000000000000000000000081526004016200019a9062000496565b60405180910390fd5b8173ffffffffffffffffffffffffffffffffffffffff1660808173ffffffffffffffffffffffffffffffffffffffff168152505080600160006101000a81548173ffffffffffffffffffffffffffffffffffffffff021916908373ffffffffffffffffffffffffffffffffffffffff1602179055505050620004b8565b60008060009054906101000a900473ffffffffffffffffffffffffffffffffffffffff169050816000806101000a81548173ffffffffffffffffffffffffffffffffffffffff021916908373ffffffffffffffffffffffffffffffffffffffff1602179055508173ffffffffffffffffffffffffffffffffffffffff168173ffffffffffffffffffffffffffffffffffffffff167f8be0079c531659141344cd1fd0a4f28419497f9722a3daafe3b4186f6b6457e060405160405180910390a35050565b600080fd5b600073ffffffffffffffffffffffffffffffffffffffff82169050919050565b60006200031682620002e9565b9050919050565b620003288162000309565b81146200033457600080fd5b50565b60008151905062000348816200031d565b92915050565b60008060408385031215620003685762000367620002e4565b5b6000620003788582860162000337565b92505060206200038b8582860162000337565b9150509250929050565b620003a08162000309565b82525050565b6000602082019050620003bd600083018462000395565b92915050565b600082825260208201905092915050565b7f496e76616c696420555344430000000000000000000000000000000000000000600082015250565b60006200040c600c83620003c3565b91506200041982620003d4565b602082019050919050565b600060208201905081810360008301526200043f81620003fd565b9050919050565b7f496e76616c69642050726f746f636f6c00000000000000000000000000000000600082015250565b60006200047e601083620003c3565b91506200048b8262000446565b602082019050919050565b60006020820190508181036000830152620004b1816200046f565b9050919050565b608051610f38620004f06000396000818161017f01528181610289015281816103d4015281816104f901526106430152610f386000f3fe608060405234801561001057600080fd5b50600436106100935760003560e01c8063715018a611610066578063715018a6146100fa5780638ce74426146101045780638da5cb5b14610122578063b6b55f2514610140578063f2fde38b1461015c57610093565b80632632df96146100985780633e413bee146100b65780634e71d92d146100d45780635312ea8e146100de575b600080fd5b6100a0610178565b6040516100ad919061094e565b60405180910390f35b6100be61017d565b6040516100cb91906109e8565b60405180910390f35b6100dc6101a1565b005b6100f860048036038101906100f39190610a34565b6104ef565b005b6101026105de565b005b61010c6105f2565b6040516101199190610a82565b60405180910390f35b61012a610618565b6040516101379190610abe565b60405180910390f35b61015a60048036038101906101559190610a34565b610641565b005b61017660048036038101906101719190610b05565b61075c565b005b606481565b7f000000000000000000000000000000000000000000000000000000000000000081565b6000600160009054906101000a900473ffffffffffffffffffffffffffffffffffffffff1673ffffffffffffffffffffffffffffffffffffffff1663427abf0c336040518263ffffffff1660e01b81526004016101fe9190610abe565b602060405180830381865afa15801561021b573d6000803e3d6000fd5b505050506040513d601f19601f8201168201806040525081019061023f9190610b47565b90506064811015610285576040517f08c379a000000000000000000000000000000000000000000000000000000000815260040161027c90610bd1565b60405180910390fd5b60007f000000000000000000000000000000000000000000000000000000000000000073ffffffffffffffffffffffffffffffffffffffff166370a08231306040518263ffffffff1660e01b81526004016102e09190610abe565b602060405180830381865afa1580156102fd573d6000803e3d6000fd5b505050506040513d601f19601f820116820180604052508101906103219190610b47565b905060008111610366576040517f08c379a000000000000000000000000000000000000000000000000000000000815260040161035d90610c3d565b60405180910390fd5b60006103e883836103779190610c8c565b6103819190610cfd565b90508181111561038f578190505b600081116103d2576040517f08c379a00000000000000000000000000000000000000000000000000000000081526004016103c990610d7a565b60405180910390fd5b7f000000000000000000000000000000000000000000000000000000000000000073ffffffffffffffffffffffffffffffffffffffff1663a9059cbb33836040518363ffffffff1660e01b815260040161042d929190610d9a565b6020604051808303816000875af115801561044c573d6000803e3d6000fd5b505050506040513d601f19601f820116820180604052508101906104709190610dfb565b6104af576040517f08c379a00000000000000000000000000000000000000000000000000000000081526004016104a690610e74565b60405180910390fd5b7ff01da32686223933d8a18a391060918c7f11a3648639edd87ae013e2e27317433382856040516104e293929190610e94565b60405180910390a1505050565b6104f76107e2565b7f000000000000000000000000000000000000000000000000000000000000000073ffffffffffffffffffffffffffffffffffffffff1663a9059cbb61053b610618565b836040518363ffffffff1660e01b8152600401610559929190610d9a565b6020604051808303816000875af1158015610578573d6000803e3d6000fd5b505050506040513d601f19601f8201168201806040525081019061059c9190610dfb565b6105db576040517f08c379a00000000000000000000000000000000000000000000000000000000081526004016105d290610e74565b60405180910390fd5b50565b6105e66107e2565b6105f06000610869565b565b600160009054906101000a900473ffffffffffffffffffffffffffffffffffffffff1681565b60008060009054906101000a900473ffffffffffffffffffffffffffffffffffffffff16905090565b7f000000000000000000000000000000000000000000000000000000000000000073ffffffffffffffffffffffffffffffffffffffff166323b872dd3330846040518463ffffffff1660e01b815260040161069e93929190610ecb565b6020604051808303816000875af11580156106bd573d6000803e3d6000fd5b505050506040513d601f19601f820116820180604052508101906106e19190610dfb565b610720576040517f08c379a000000000000000000000000000000000000000000000000000000000815260040161071790610e74565b60405180910390fd5b7f2da466a7b24304f47e87fa2e1e5a81b9831ce54fec19055ce277ca2f39ba42c43382604051610751929190610d9a565b60405180910390a150565b6107646107e2565b600073ffffffffffffffffffffffffffffffffffffffff168173ffffffffffffffffffffffffffffffffffffffff16036107d65760006040517f1e4fbdf70000000000000000000000000000000000000000000000000000000081526004016107cd9190610abe565b60405180910390fd5b6107df81610869565b50565b6107ea61092d565b73ffffffffffffffffffffffffffffffffffffffff16610808610618565b73ffffffffffffffffffffffffffffffffffffffff16146108675761082b61092d565b6040517f118cdaa700000000000000000000000000000000000000000000000000000000815260040161085e9190610abe565b60405180910390fd5b565b60008060009054906101000a900473ffffffffffffffffffffffffffffffffffffffff169050816000806101000a81548173ffffffffffffffffffffffffffffffffffffffff021916908373ffffffffffffffffffffffffffffffffffffffff1602179055508173ffffffffffffffffffffffffffffffffffffffff168173ffffffffffffffffffffffffffffffffffffffff167f8be0079c531659141344cd1fd0a4f28419497f9722a3daafe3b4186f6b6457e060405160405180910390a35050565b600033905090565b6000819050919050565b61094881610935565b82525050565b6000602082019050610963600083018461093f565b92915050565b600073ffffffffffffffffffffffffffffffffffffffff82169050919050565b6000819050919050565b60006109ae6109a96109a484610969565b610989565b610969565b9050919050565b60006109c082610993565b9050919050565b60006109d2826109b5565b9050919050565b6109e2816109c7565b82525050565b60006020820190506109fd60008301846109d9565b92915050565b600080fd5b610a1181610935565b8114610a1c57600080fd5b50565b600081359050610a2e81610a08565b92915050565b600060208284031215610a4a57610a49610a03565b5b6000610a5884828501610a1f565b91505092915050565b6000610a6c826109b5565b9050919050565b610a7c81610a61565b82525050565b6000602082019050610a976000830184610a73565b92915050565b6000610aa882610969565b9050919050565b610ab881610a9d565b82525050565b6000602082019050610ad36000830184610aaf565b92915050565b610ae281610a9d565b8114610aed57600080fd5b50565b600081359050610aff81610ad9565b92915050565b600060208284031215610b1b57610b1a610a03565b5b6000610b2984828501610af0565b91505092915050565b600081519050610b4181610a08565b92915050565b600060208284031215610b5d57610b5c610a03565b5b6000610b6b84828501610b32565b91505092915050565b600082825260208201905092915050565b7f53636f726520746f6f206c6f7700000000000000000000000000000000000000600082015250565b6000610bbb600d83610b74565b9150610bc682610b85565b602082019050919050565b60006020820190508181036000830152610bea81610bae565b9050919050565b7f506f6f6c20656d70747900000000000000000000000000000000000000000000600082015250565b6000610c27600a83610b74565b9150610c3282610bf1565b602082019050919050565b60006020820190508181036000830152610c5681610c1a565b9050919050565b7f4e487b7100000000000000000000000000000000000000000000000000000000600052601160045260246000fd5b6000610c9782610935565b9150610ca283610935565b9250828202610cb081610935565b91508282048414831517610cc757610cc6610c5d565b5b5092915050565b7f4e487b7100000000000000000000000000000000000000000000000000000000600052601260045260246000fd5b6000610d0882610935565b9150610d1383610935565b925082610d2357610d22610cce565b5b828204905092915050565b7f52657761726420746f6f20736d616c6c00000000000000000000000000000000600082015250565b6000610d64601083610b74565b9150610d6f82610d2e565b602082019050919050565b60006020820190508181036000830152610d9381610d57565b9050919050565b6000604082019050610daf6000830185610aaf565b610dbc602083018461093f565b9392505050565b60008115159050919050565b610dd881610dc3565b8114610de357600080fd5b50565b600081519050610df581610dcf565b92915050565b600060208284031215610e1157610e10610a03565b5b6000610e1f84828501610de6565b91505092915050565b7f5472616e73666572206661696c65640000000000000000000000000000000000600082015250565b6000610e5e600f83610b74565b9150610e6982610e28565b602082019050919050565b60006020820190508181036000830152610e8d81610e51565b9050919050565b6000606082019050610ea96000830186610aaf565b610eb6602083018561093f565b610ec3604083018461093f565b949350505050565b6000606082019050610ee06000830186610aaf565b610eed6020830185610aaf565b610efa604083018461093f565b94935050505056fea2646970667358221220d08fc83e2b10741873fe0d1a625f5a74dfd893d90383199142c330f2e0f9574664736f6c63430008180033",
  "linkReferences": {},
  "deployedLinkReferences": {}
}